:100000000C9434000C9449000C9449000C94490061
:100010000C9449000C9449000C9449000C9449003C
:100020000C9449000C9449000C9449000C9449002C
:100030000C9449000C9449000C9449000C9449001C
:100040000C9449000C9449000C9449000C9449000C
:100050000C9449000C9449000C9449000C944900FC
:100060000C9449000C94490011241FBECFEFD8E036
:10007000DEBFCDBF11E0A0E0B1E0E2E5F1E002C0FB
:1000800005900D92A231B107D9F70E947D000C9422
:10009000A7000C9400002D9A08952D980895259A94
:1000A0000895CF93DF931F92CDB7DEB789830E9467
:1000B0004B002FEF34E39CE0215030409040E1F7BB
:1000C00000C0000089818D3249F42FEF39E688E1C4
:1000D000215030408040E1F700C000000E944D00F8
:1000E0009FEF24E33CE0915020403040E1F700C016
:1000F00000000F90DF91CF910895CF93DF93CDB79C
:10010000DEB761970FB6F894DEBF0FBECDBF81E1B9
:10011000E0E0F1E0DE01119601900D928A95E1F7A1
:100120000E944F008E010F5F1F4FF80181918F01D8
:10013000882319F00E945100F8CFFFEF23E284EFEB
:10014000F15020408040E1F700C00000EBCFF89470
:02015000FFCFDF
:100152002E2E2E2E2E2E2D2E2E2E2D2E2E2D2D2DC2
:0201620000009B
:00000001FF
