:100000000C9435000C945D000C945D000C945D0024
:100010000C945D000C945D000C945D000C945D00EC
:100020000C945D000C945D000C945D000C945D00DC
:100030000C945D000C945D000C945D000C945D00CC
:100040000C945D000C945D000C945D000C945D00BC
:100050000C945D000C945D000C945D000C945D00AC
:100060000C945D000C945D00630111241FBECFEF62
:10007000D8E0DEBFCDBF11E0A0E0B1E0E0EFF3E0FB
:1000800002C005900D92A236B107D9F721E0A2E691
:10009000B1E001C01D92AA3BB207E1F710E0C5E351
:1000A000D0E004C02197FE010E94AB01C433D10708
:1000B000C9F70E9475010C94F6010C940000CF93CF
:1000C000C82F873049F46091B8017091B9018EE072
:1000D00091E00E94B1010BC08A3019F48DE00E94BA
:1000E0005F008091C00085FFFCCFC093C60080E018
:1000F00090E0CF910895EF92FF920F931F93CF93CB
:10010000DF932091B2013091B301232B09F0ACC0F1
:10011000EC0102E611E08091C00087FFFCCF8091E6
:10012000C00084FDB4C08091C00083FDB3C0809145
:10013000C6008D3069F48AE0F8018083BE010E9418
:100140005F0082E691E09093B3018093B2018CC08E
:100150008A3089F3893009F480E290EE980F9F3558
:1001600010F0803AC0F0F1E0013B1F0749F46091C4
:10017000B8017091B9018EE091E00E94B101CBCF3E
:1001800078019FEFE91AF90AF8018083BE010E9405
:100190005F008701C0CF823129F130F4833009F448
:1001A00079C0883051F0B7CF873129F08F3729F0E7
:1001B000853159F1B0CF78014FC0F1E002361F0709
:1001C00009F008F4A8CFBE0188E00E945F00BE01DC
:1001D00080E20E945F00BE0188E00E945F00015043
:1001E000110999CFBE018DE00E945F0082E6E82EE2
:1001F00081E0F82EE016F10608F08DCFBE01F70180
:1002000081917F010E945F00F5CFF1E002361F0768
:1002100009F008F480CFBE0188E00E945F00BE01B3
:1002200080E20E945F00BE0188E00E945F000150F2
:100230001109EBCFF70182917F01803209F46BCF76
:10024000BE0188E00E945F00BE0180E20E945F0064
:10025000BE0188E00E945F00870182E6E81681E027
:10026000F80609F038F757CFE091B201F091B301E9
:10027000CF0101969093B3018093B20180818A30BF
:1002800021F41092B3011092B20190E005C08EEFFC
:100290009FEF02C08FEF9FEFDF91CF911F910F91E2
:1002A000FF90EF900895CF93DF93EC01899160E088
:1002B00070E0882319F00E945F00F8CF8AE0DF9198
:1002C000CF910C945F0082E08093C00080E1809326
:1002D000C40088E18093C100E4EBF1E080E091E0AC
:1002E0009183808393838283089586E191E00E94C5
:1002F00053018EE191E00E94530180E090E00E9462
:100300007B002FEF39E698E1215030409040E1F733
:1003100000C00000813469F760E070E082E40E9470
:100320005F0060E070E08AE00E945F0084E391E09B
:100330000E94530180E090E00E947B00833791058A
:10034000C9F72FEF33ED80E3215030408040E1F7D3
:1003500000C00000CACFEE0FFF1F0590F491E02D02
:100360000994EF92FF920F931F93CF93DF93DB01DA
:1003700013962C9121FF18C08B017C01D0E0C0E0C6
:10038000F70181917F01882361F0D8011896ED91E2
:10039000FC911997B8010995892B91F3DFEFCFEF05
:1003A000EFCF8D2F9C2F02C08FEF9FEFCDB7DEB721
:1003B000E6E00C94E7012A88398848885F846E84D7
:1003C0007D848C849B84AA84B984C884DF80EE8079
:1003D000FD800C811B81AA81B981CE0FD11D0FB682
:1003E000F894DEBF0FBECDBFED010895F894FFCFA6
:1003F00000000003000000005F007B0000002A7284
:10040000696E672A0A00426F6F74206F6B00576134
:100410006974696E6720666F722068616E647368C4
:10042000616B650048616E647368616B652073750C
:10043000636365737366756C202E2E2E200A205020
:10044000726573732027732720746F207374617231
:02045000740036
:00000001FF
