:100000000C9435000C945D000C945D000C948501FB
:100010000C945D000C945D000C945D000C945D00EC
:100020000C945D000C945D000C945D000C945D00DC
:100030000C945D000C945D000C945D000C945D00CC
:100040000C945D000C945D000C945D000C945D00BC
:100050000C945D000C945D000C945D000C945D00AC
:100060000C945D000C945D00AD0111241FBECFEF18
:10007000D8E0DEBFCDBF11E0A0E0B1E0EAE3F4E0FC
:1000800002C005900D92AE31B107D9F721E0AEE183
:10009000B1E001C01D92A637B207E1F710E0C5E359
:1000A000D0E004C02197FE010E94D001C433D107E3
:1000B000C9F70E94BF010C941B020C940000CF935F
:1000C000C82F873049F460917401709175018EE0FA
:1000D00091E00E94D6010BC08A3019F48DE00E9495
:1000E0005F008091C00085FFFCCFC093C60080E018
:1000F00090E0CF910895EF92FF920F931F93CF93CB
:10010000DF9320916E0130916F01232B09F0ACC079
:10011000EC010EE111E08091C00087FFFCCF8091DF
:10012000C00084FDB4C08091C00083FDB3C0809145
:10013000C6008D3069F48AE0F8018083BE010E9418
:100140005F008EE191E090936F0180936E018CC00F
:100150008A3089F3893009F480E290EE980F9F3558
:1001600010F0803AC0F0F1E00D361F0749F46091BD
:100170007401709175018EE091E00E94D601CBCFA1
:1001800078019FEFE91AF90AF8018083BE010E9405
:100190005F008701C0CF823129F130F4833009F448
:1001A00079C0883051F0B7CF873129F08F3729F0E7
:1001B000853159F1B0CF78014FC0F1E00E311F0702
:1001C00009F008F4A8CFBE0188E00E945F00BE01DC
:1001D00080E20E945F00BE0188E00E945F00015043
:1001E000110999CFBE018DE00E945F008EE1E82EDB
:1001F00081E0F82EE016F10608F08DCFBE01F70180
:1002000081917F010E945F00F5CFF1E00E311F0761
:1002100009F008F480CFBE0188E00E945F00BE01B3
:1002200080E20E945F00BE0188E00E945F000150F2
:100230001109EBCFF70182917F01803209F46BCF76
:10024000BE0188E00E945F00BE0180E20E945F0064
:10025000BE0188E00E945F0087018EE1E81681E020
:10026000F80609F038F757CFE0916E01F0916F0171
:10027000CF01019690936F0180936E0180818A3047
:1002800021F410926F0110926E0190E005C08EEF84
:100290009FEF02C08FEF9FEFDF91CF911F910F91E2
:1002A000FF90EF900895CF93DF93EC01899160E088
:1002B00070E0882319F00E945F00F8CF8AE0DF9198
:1002C000CF910C945F0081E0089580E0089583B1A0
:1002D000867090E0959587958130910541F0823048
:1002E000910541F0039749F480E090E0089582E0A1
:1002F00090E0089581E090E0089583E090E0089513
:1003000095B180E2892785B908951F920F920FB6A3
:100310000F9211242F933F934F935F936F937F938B
:100320008F939F93AF93BF93EF93FF930E948001AE
:100330008BE191E00E945301FF91EF91BF91AF914A
:100340009F918F917F916F915F914F913F912F91ED
:100350000F900FBE0F901F90189582E08093C00001
:1003600080E18093C40088E18093C100E0E7F1E080
:1003700080E091E0918380839383828308958091CC
:10038000680081608093680080916B008660809334
:100390006B00259A789486E191E00E945301FFCF8B
:1003A000EE0FFF1F0590F491E02D0994EF92FF925C
:1003B0000F931F93CF93DF93DB0113962C9121FFB3
:1003C00018C08B017C01D0E0C0E0F70181917F0172
:1003D000882361F0D8011896ED91FC911997B80126
:1003E0000995892B91F3DFEFCFEFEFCF8D2F9C2F66
:1003F00002C08FEF9FEFCDB7DEB7E6E00C940C02A2
:100400002A88398848885F846E847D848C849B84A4
:10041000AA84B984C884DF80EE80FD800C811B81B2
:10042000AA81B981CE0FD11D0FB6F894DEBF0FBEE1
:0A043000CDBFED010895F894FFCF51
:10043A0000000003000000005F007B0000002A7239
:0E044A00696E672A0A00426F6F74206F6B00A4
:00000001FF
