:100000000C9435000C945D000C945D000C945D0024
:100010000C945D000C945D000C945D000C945D00EC
:100020000C945D000C945D000C945D000C945D00DC
:100030000C945D000C945D000C945D000C945D00CC
:100040000C945D000C945D000C945D000C945D00BC
:100050000C945D000C945D000C945D000C945D00AC
:100060000C945D000C945D00940111241FBECFEF31
:10007000D8E0DEBFCDBF11E0A0E0B1E0EEE8F9E0EE
:1000800002C005900D92A433B107D9F721E0A4E393
:10009000B1E001C01D92AC38B207E1F710E0C5E352
:1000A000D0E004C02197FE010E94CA01C433D107E9
:1000B000C9F70E94A6010C94C5040C940000CF93CC
:1000C000C82F873049F460918A0170918B018EE0CE
:1000D00091E00E94D0010BC08A3019F48DE00E949B
:1000E0005F008091C00085FFFCCFC093C60080E018
:1000F00090E0CF910895EF92FF920F931F93CF93CB
:10010000DF932091840130918501232B09F0ACC04D
:10011000EC0104E311E08091C00087FFFCCF8091E7
:10012000C00084FDB4C08091C00083FDB3C0809145
:10013000C6008D3069F48AE0F8018083BE010E9418
:100140005F0084E391E090938501809384018CC0EB
:100150008A3089F3893009F480E290EE980F9F3558
:1001600010F0803AC0F0F1E003381F0749F46091C5
:100170008A0170918B018EE091E00E94D001CBCF7B
:1001800078019FEFE91AF90AF8018083BE010E9405
:100190005F008701C0CF823129F130F4833009F448
:1001A00079C0883051F0B7CF873129F08F3729F0E7
:1001B000853159F1B0CF78014FC0F1E004331F070A
:1001C00009F008F4A8CFBE0188E00E945F00BE01DC
:1001D00080E20E945F00BE0188E00E945F00015043
:1001E000110999CFBE018DE00E945F0084E3E82EE3
:1001F00081E0F82EE016F10608F08DCFBE01F70180
:1002000081917F010E945F00F5CFF1E004331F0769
:1002100009F008F480CFBE0188E00E945F00BE01B3
:1002200080E20E945F00BE0188E00E945F000150F2
:100230001109EBCFF70182917F01803209F46BCF76
:10024000BE0188E00E945F00BE0180E20E945F0064
:10025000BE0188E00E945F00870184E3E81681E028
:10026000F80609F038F757CFE0918401F091850145
:10027000CF010196909385018093840180818A301B
:1002800021F4109285011092840190E005C08EEF58
:100290009FEF02C08FEF9FEFDF91CF911F910F91E2
:1002A000FF90EF900895CF93DF93EC01899160E088
:1002B00070E0882319F00E945F00F8CF8AE0DF9198
:1002C000CF910C945F0095B180E2892785B908959C
:1002D0002C98249A8AE08A95F1F700C02C9AE5E3DD
:1002E000EA95F1F700002C98249883B182958170EB
:1002F00083B98823D1F3109285001092840083B1D2
:100300008295817083B98111FACF20918500809107
:100310008400EFE1F3E03197F1F700C0000090E0D6
:10032000922B880F991F089582E08093C00080E18E
:100330008093C40088E18093C100E6E8F1E080E0AA
:1003400091E09183808393838283089580E284B9CE
:1003500078948091810083608093810086E191E0B0
:100360000E945301CEE1D1E00E9468019F938F93D8
:10037000DF93CF930E94FA019FEF29E688E1915025
:1003800020408040E1F700C000000F900F900F90D8
:100390000F90EACFEE0FFF1F0590F491E02D099426
:1003A000EF92FF920F931F93CF93DF93DB0113968E
:1003B0002C9121FF18C08B017C01D0E0C0E0F70137
:1003C00081917F01882361F0D8011896ED91FC910D
:1003D0001997B8010995892B91F3DFEFCFEFEFCF94
:1003E0008D2F9C2F02C08FEF9FEFCDB7DEB7E6E0D9
:1003F0000C94B604A0E0B0E0E0E0F2E00C949E04BF
:10040000AE014B5F5F4FFA0161917191AF01809135
:100410008801909189010E941002E2E00C94BA04D4
:10042000ACE0B0E0E6E1F2E00C948E047C016B01FC
:100430008A01FC0117821682838181FFBDC1CE0132
:1004400001964C01F7019381F60193FD859193FF8D
:1004500081916F01882309F4ABC1853239F493FD92
:10046000859193FF81916F01853229F4B70190E066
:100470000E94F803E7CF512C312C20E02032A0F469
:100480008B3269F030F4803259F0833269F42061A4
:100490002CC08D3239F0803339F4216026C02260BF
:1004A000246023C0286021C027FD27C030ED380F0D
:1004B0003A3078F426FF06C0FAE05F9E300D112432
:1004C000532E13C08AE0389E300D1124332E206243
:1004D0000CC08E3221F426FD6BC1206406C08C3620
:1004E00011F4206802C0883641F4F60193FD85912D
:1004F00093FF81916F018111C1CF982F9F7D9554FA
:10050000933028F40C5F1F4FFFE3F9830DC083364F
:1005100031F0833771F0833509F05BC022C0F801F8
:10052000808189830E5F1F4F44244394512C5401D2
:1005300015C03801F2E06F0E711CF801A080B18087
:1005400026FF03C0652D70E002C06FEF7FEFC5018D
:100550002C870E94ED032C0183012C852F77222EFE
:1005600017C03801F2E06F0E711CF801A080B18055
:1005700026FF03C0652D70E002C06FEF7FEFC5015D
:100580002C870E94E2032C012C852068222E8301F7
:1005900023FC1BC0832D90E048165906B0F4B70128
:1005A00080E290E00E94F8033A94F4CFF50127FC32
:1005B000859127FE81915F01B70190E00E94F803C9
:1005C00031103A94F1E04F1A51084114510471F777
:1005D000E5C0843611F0893639F5F80127FF07C0E8
:1005E00060817181828193810C5F1F4F08C060819F
:1005F0007181072E000C880B990B0E5F1F4F2F7611
:10060000722E97FF09C090958095709561957F4FE8
:100610008F4F9F4F2068722E2AE030E0A4010E9485
:100620003004A82EA81844C0853729F42F7EB22E96
:100630002AE030E025C0F22FF97FBF2E8F36C1F0BF
:1006400018F4883579F0B4C0803719F0883721F074
:10065000AFC02F2F2061B22EB4FE0DC08B2D846051
:10066000B82E09C024FF0AC09F2F9660B92E06C07D
:1006700028E030E005C020E130E002C020E132E0B7
:10068000F801B7FE07C060817181828193810C5FA0
:100690001F4F06C06081718180E090E00E5F1F4FA8
:1006A000A4010E943004A82EA818FB2DFF777F2EEE
:1006B00076FE0BC0372D3E7FA51450F474FE0AC0A1
:1006C00072FC08C0372D3E7E05C0BA2C372D03C002
:1006D000BA2C01C0B52C34FF0DC0FE01EA0DF11D8E
:1006E0008081803311F4397E09C032FF06C0B39493
:1006F000B39404C0832F867809F0B39433FD13C0FC
:1007000030FF06C05A2CB31418F4530C5B18B32CEA
:10071000B31468F4B70180E290E03C870E94F803CC
:10072000B3943C85F5CFB31410F43B1801C0312CC1
:1007300034FF12C0B70180E390E03C870E94F803C9
:100740003C8532FF17C031FD03C088E790E002C04E
:1007500088E590E0B7010CC0832F867859F031FF0F
:1007600002C08BE201C080E237FD8DE2B70190E06C
:100770000E94F803A51438F4B70180E390E00E94CA
:10078000F8035A94F7CFAA94F401EA0DF11D808181
:10079000B70190E00E94F803A110F5CF332009F4CF
:1007A00051CEB70180E290E00E94F8033A94F6CF70
:1007B000F7018681978102C08FEF9FEF2C96E2E1CF
:1007C0000C94AA04FC010590615070400110D8F708
:1007D000809590958E0F9F1F0895FC016150704089
:1007E00001900110D8F7809590958E0F9F1F089566
:1007F0000F931F93CF93DF93FB01238121FD03C050
:100800008FEF9FEF28C022FF16C0468157812481B9
:1008100035814217530744F4A081B1819D012F5FB8
:100820003F4F318320838C93268137812F5F3F4F49
:100830003783268310C0EB01092F182F0084F18520
:10084000E02D0995892BE1F68E819F8101969F838A
:100850008E83812F902FDF91CF911F910F9108955B
:10086000FA01AA27283051F1203181F1E8946F93E1
:100870006E7F6E5F7F4F8F4F9F4FAF4FB1E03ED087
:10088000B4E03CD0670F781F891F9A1FA11D680F25
:10089000791F8A1F911DA11D6A0F711D811D911D58
:1008A000A11D20D009F468943F912AE0269F1124CD
:1008B0003019305D3193DEF6CF010895462F477031
:1008C000405D4193B3E00FD0C9F7F6CF462F4F708C
:1008D000405D4A3318F0495D31FD4052419302D0EA
:1008E000A9F7EACFB4E0A695979587957795679590
:1008F000BA95C9F700976105710508959B01AC0190
:100900000A2E06945795479537952795BA95C9F7B6
:10091000620F731F841F951FA01D08952F923F9291
:100920004F925F926F927F928F929F92AF92BF92FF
:10093000CF92DF92EF92FF920F931F93CF93DF93AB
:10094000CDB7DEB7CA1BDB0B0FB6F894DEBF0FBE08
:10095000CDBF09942A88398848885F846E847D8455
:100960008C849B84AA84B984C884DF80EE80FD8057
:100970000C811B81AA81B981CE0FD11D0FB6F894CD
:0E098000DEBF0FBECDBFED010895F894FFCF8E
:10098E0000000003000000005F007B0000002A72E0
:10099E00696E672A0A00426F6F74206F6B00507584
:1009AE006C7365206C656E677468203A2025642030
:0409BE0075730A0043
:00000001FF
